{
  "contractName": "PropertyOwnership",
  "abi": [
    {
      "inputs": [
        {
          "internalType": "address",
          "name": "_Designated_authority",
          "type": "address"
        }
      ],
      "payable": false,
      "stateMutability": "nonpayable",
      "type": "constructor"
    },
    {
      "constant": true,
      "inputs": [],
      "name": "Designated_authority",
      "outputs": [
        {
          "internalType": "address",
          "name": "",
          "type": "address"
        }
      ],
      "payable": false,
      "stateMutability": "view",
      "type": "function"
    },
    {
      "constant": true,
      "inputs": [
        {
          "internalType": "uint256",
          "name": "",
          "type": "uint256"
        }
      ],
      "name": "Properties",
      "outputs": [
        {
          "internalType": "uint256",
          "name": "area",
          "type": "uint256"
        },
        {
          "internalType": "string",
          "name": "location",
          "type": "string"
        },
        {
          "internalType": "address",
          "name": "owner",
          "type": "address"
        }
      ],
      "payable": false,
      "stateMutability": "view",
      "type": "function"
    },
    {
      "constant": true,
      "inputs": [],
      "name": "count",
      "outputs": [
        {
          "internalType": "uint256",
          "name": "",
          "type": "uint256"
        }
      ],
      "payable": false,
      "stateMutability": "view",
      "type": "function"
    },
    {
      "constant": true,
      "inputs": [
        {
          "internalType": "uint256",
          "name": "_id",
          "type": "uint256"
        }
      ],
      "name": "getPropertyOwner",
      "outputs": [
        {
          "internalType": "address",
          "name": "",
          "type": "address"
        }
      ],
      "payable": false,
      "stateMutability": "view",
      "type": "function"
    },
    {
      "constant": true,
      "inputs": [
        {
          "internalType": "address",
          "name": "_owner",
          "type": "address"
        }
      ],
      "name": "getPropertiesOwned",
      "outputs": [
        {
          "internalType": "uint256[]",
          "name": "",
          "type": "uint256[]"
        }
      ],
      "payable": false,
      "stateMutability": "view",
      "type": "function"
    },
    {
      "constant": false,
      "inputs": [
        {
          "internalType": "uint256",
          "name": "_area",
          "type": "uint256"
        },
        {
          "internalType": "string",
          "name": "_location",
          "type": "string"
        },
        {
          "internalType": "address",
          "name": "_owner",
          "type": "address"
        }
      ],
      "name": "createNewProperty",
      "outputs": [],
      "payable": false,
      "stateMutability": "nonpayable",
      "type": "function"
    },
    {
      "constant": false,
      "inputs": [
        {
          "internalType": "uint256",
          "name": "id",
          "type": "uint256"
        },
        {
          "internalType": "address",
          "name": "new_owner",
          "type": "address"
        }
      ],
      "name": "transferPropertyOwnership",
      "outputs": [],
      "payable": false,
      "stateMutability": "nonpayable",
      "type": "function"
    },
    {
      "constant": false,
      "inputs": [
        {
          "internalType": "uint256",
          "name": "id",
          "type": "uint256"
        },
        {
          "internalType": "uint256[]",
          "name": "_newAreas",
          "type": "uint256[]"
        },
        {
          "internalType": "address[]",
          "name": "_newOwners",
          "type": "address[]"
        }
      ],
      "name": "splitPropertyOwnership",
      "outputs": [],
      "payable": false,
      "stateMutability": "nonpayable",
      "type": "function"
    }
  ],
  "bytecode": "0x608060405234801561001057600080fd5b50604051610c1b380380610c1b8339818101604052602081101561003357600080fd5b5051600080546001600160a01b039092166001600160a01b0319909216919091179055610bb6806100656000396000f3fe608060405234801561001057600080fd5b50600436106100885760003560e01c8063b98dbbbc1161005b578063b98dbbbc14610344578063e34fc53114610370578063ede1a64f146103a9578063fe9cca57146103b157610088565b806306661abd1461008d5780634609b262146100a7578063745f5aad146101d75780639d1168841461028f575b600080fd5b610095610427565b60408051918252519081900360200190f35b6101d5600480360360608110156100bd57600080fd5b813591908101906040810160208201356401000000008111156100df57600080fd5b8201836020820111156100f157600080fd5b8035906020019184602083028401116401000000008311171561011357600080fd5b919080806020026020016040519081016040528093929190818152602001838360200280828437600092019190915250929594936020810193503591505064010000000081111561016357600080fd5b82018360208201111561017557600080fd5b8035906020019184602083028401116401000000008311171561019757600080fd5b91908080602002602001604051908101604052809392919081815260200183836020028082843760009201919091525092955061042d945050505050565b005b6101d5600480360360608110156101ed57600080fd5b8135919081019060408101602082013564010000000081111561020f57600080fd5b82018360208201111561022157600080fd5b8035906020019184600183028401116401000000008311171561024357600080fd5b91908080601f016020809104026020016040519081016040528093929190818152602001838380828437600092019190915250929550505090356001600160a01b031691506106ef9050565b6102ac600480360360208110156102a557600080fd5b50356107bb565b6040518084815260200180602001836001600160a01b03166001600160a01b03168152602001828103825284818151815260200191508051906020019080838360005b838110156103075781810151838201526020016102ef565b50505050905090810190601f1680156103345780820380516001836020036101000a031916815260200191505b5094505050505060405180910390f35b6101d56004803603604081101561035a57600080fd5b50803590602001356001600160a01b031661086f565b61038d6004803603602081101561038657600080fd5b50356108fb565b604080516001600160a01b039092168252519081900360200190f35b61038d61091a565b6103d7600480360360208110156103c757600080fd5b50356001600160a01b0316610929565b60408051602080825283518183015283519192839290830191858101910280838360005b838110156104135781810151838201526020016103fb565b505050509050019250505060405180910390f35b60015481565b600083815260026020819052604090912001546001600160a01b031633146104865760405162461bcd60e51b8152600401808060200182810382526024815260200180610b5e6024913960400191505060405180910390fd5b80518251146104c65760405162461bcd60e51b8152600401808060200182810382526029815260200180610b356029913960400191505060405180910390fd5b6000805b83518110156104f8578381815181106104df57fe5b60200260200101518201915080806001019150506104ca565b5060008481526002602052604090205481146105455760405162461bcd60e51b8152600401808060200182810382526026815260200180610b0f6026913960400191505060405180910390fd5b60005b83518110156106b757600180548101905560408051606081019091528451819086908490811061057457fe5b60200260200101518152602001600260008881526020019081526020016000206001018054600181600116156101000203166002900480601f01602080910402602001604051908101604052809291908181526020018280546001816001161561010002031660029004801561062b5780601f106106005761010080835404028352916020019161062b565b820191906000526020600020905b81548152906001019060200180831161060e57829003601f168201915b5050505050815260200184838151811061064157fe5b6020908102919091018101516001600160a01b0316909152600180546000908152600283526040902083518155838301518051919361068593850192910190610a02565b5060409190910151600290910180546001600160a01b0319166001600160a01b03909216919091179055600101610548565b506000848152600260205260408120818155906106d76001830182610a80565b5060020180546001600160a01b031916905550505050565b6000546001600160a01b031633146107385760405162461bcd60e51b815260040180806020018281038252602a815260200180610ae5602a913960400191505060405180910390fd5b6001805481018082556040805160608101825286815260208082018781526001600160a01b038716838501526000948552600282529290932081518155915180519194929361078c93850192910190610a02565b5060409190910151600290910180546001600160a01b0319166001600160a01b03909216919091179055505050565b60026020818152600092835260409283902080546001808301805487519281161561010002600019011695909504601f81018590048502820185019096528581529094919390929091908301828280156108565780601f1061082b57610100808354040283529160200191610856565b820191906000526020600020905b81548152906001019060200180831161083957829003601f168201915b505050600290930154919250506001600160a01b031683565b600082815260026020819052604090912001546001600160a01b031633146108c85760405162461bcd60e51b8152600401808060200182810382526024815260200180610b5e6024913960400191505060405180910390fd5b600091825260026020819052604090922090910180546001600160a01b0319166001600160a01b03909216919091179055565b600090815260026020819052604090912001546001600160a01b031690565b6000546001600160a01b031681565b60606000805b600154811161096d57600081815260026020819052604090912001546001600160a01b0385811691161415610965576001820191505b60010161092f565b5060608160405190808252806020026020018201604052801561099a578160200160208202803883390190505b5090506000805b60015481116109f857600081815260026020819052604090912001546001600160a01b03878116911614156109f057808383815181106109dd57fe5b6020026020010181815250506001820191505b6001016109a1565b5090949350505050565b828054600181600116156101000203166002900490600052602060002090601f016020900481019282601f10610a4357805160ff1916838001178555610a70565b82800160010185558215610a70579182015b82811115610a70578251825591602001919060010190610a55565b50610a7c929150610ac7565b5090565b50805460018160011615610100020316600290046000825580601f10610aa65750610ac4565b601f016020900490600052602060002090810190610ac49190610ac7565b50565b610ae191905b80821115610a7c5760008155600101610acd565b9056fe55736572206e6f7420617574686f72697a656420746f20637265617465206e65772070726f706572747953756d206f66206e6577206172656173206e6f7420657175616c20746f206f6c6420617265614e756d626572206f66206e6577206f776e65727320616e64206172656173206d757374206d617463686d6573736167652073656e646572206e6f74206f776e6572206f662070726f7065727479a265627a7a72315820728a2b6bf3f8dc9ee0780a715b91b62837a8bf84a66f1d694e3c851a3d7d12ca64736f6c63430005100032",
  "source": "// SPDX-License-Identifier: GPL-3.0\r\npragma solidity >= 0.5.0 <0.9.0;\r\n\r\ncontract PropertyOwnership {\r\n\r\n    // Designated authority is the only one who can create new properties\r\n    address public Designated_authority;\r\n\r\n    constructor(address _Designated_authority) public {\r\n        Designated_authority = _Designated_authority;\r\n    }\r\n\r\n    // Structure to store property information\r\n    struct Property {\r\n        uint area;\r\n        string location;\r\n        address owner;\r\n    }\r\n\r\n    uint public count;\r\n\r\n    mapping(uint => Property) public Properties;\r\n\r\n    function getPropertyOwner(uint _id) public view returns (address) {\r\n        return Properties[_id].owner;\r\n    }\r\n\r\n    function getPropertiesOwned(address _owner) public view returns (uint[] memory) {\r\n\r\n        // Count how many properties are owned by owner\r\n        uint num = 0;\r\n        for(uint i = 0; i <= count; i++) {\r\n            if(Properties[i].owner == _owner) {\r\n                num+=1;\r\n            }\r\n        }\r\n\r\n        // Create an array storing indices of properties owned\r\n        uint[] memory prop = new uint[](num);\r\n        uint temp_ind = 0;\r\n        for(uint i = 0; i <= count; i++) {\r\n            if(Properties[i].owner == _owner) {\r\n                prop[temp_ind] = i;\r\n                temp_ind+=1;\r\n            }\r\n        }\r\n\r\n        return prop;\r\n    }\r\n\r\n    function createNewProperty\r\n    (uint _area, string memory _location, address _owner) public {\r\n        \r\n        // check for designated authority\r\n        require(msg.sender == Designated_authority, \"User not authorized to create new property\");\r\n\r\n        count += 1;\r\n        Properties[count] = Property({\r\n            area: _area,\r\n            location: _location,\r\n            owner: _owner\r\n        });\r\n\r\n    }\r\n\r\n    function transferPropertyOwnership(uint id, address new_owner) external {\r\n\r\n        // check so that only current owner can change ownernship\r\n        require(msg.sender == Properties[id].owner, \"message sender not owner of property\");\r\n\r\n        Properties[id].owner = new_owner;\r\n    }\r\n\r\n    function splitPropertyOwnership \r\n    (uint id, uint[] memory _newAreas, address[] memory _newOwners) public {\r\n        \r\n        // check so that only current owner can change ownernship\r\n        require(msg.sender == Properties[id].owner, \"message sender not owner of property\");\r\n\r\n        // require number of new areas and owners to be same\r\n        require(_newAreas.length == _newOwners.length, \"Number of new owners and areas must match\");\r\n\r\n        // require sum of new areas to be equal to area of original property\r\n        uint newAreasTotal = 0;\r\n        for(uint i = 0; i < _newAreas.length; i++) {\r\n            newAreasTotal += _newAreas[i];\r\n        }\r\n        require(newAreasTotal == Properties[id].area, \"Sum of new areas not equal to old area\");\r\n\r\n        // Add new properties to list\r\n        for(uint i = 0; i < _newAreas.length; i++) {\r\n            count += 1;\r\n            Properties[count] = Property({\r\n                area: _newAreas[i],\r\n                location: Properties[id].location,\r\n                owner: _newOwners[i]\r\n            });\r\n        }\r\n\r\n        // Remove original property  \r\n        delete Properties[id];\r\n    }\r\n}",
  "sourcePath": "C:\\Users\\scien\\Documents\\temp\\Blockchain_Project\\contracts\\PropertyOwnership.sol",
  "compiler": {
    "name": "solc",
    "version": "0.5.16+commit.9c3226ce.Emscripten.clang"
  },
  "schemaVersion": "3.4.11",
  "updatedAt": "2022-12-10T20:50:37.187Z",
  "devdoc": {
    "methods": {}
  },
  "userdoc": {
    "methods": {}
  }
}